{
  "contractName": "NightLifeStaking",
  "abi": [
    {
      "inputs": [
        {
          "internalType": "address",
          "name": "_rewardToken",
          "type": "address"
        }
      ],
      "stateMutability": "nonpayable",
      "type": "constructor"
    },
    {
      "anonymous": false,
      "inputs": [
        {
          "indexed": true,
          "internalType": "address",
          "name": "previousOwner",
          "type": "address"
        },
        {
          "indexed": true,
          "internalType": "address",
          "name": "newOwner",
          "type": "address"
        }
      ],
      "name": "OwnershipTransferred",
      "type": "event"
    },
    {
      "anonymous": false,
      "inputs": [
        {
          "indexed": false,
          "internalType": "address",
          "name": "_staker",
          "type": "address"
        },
        {
          "indexed": false,
          "internalType": "uint256",
          "name": "amount",
          "type": "uint256"
        }
      ],
      "name": "Stake",
      "type": "event"
    },
    {
      "anonymous": false,
      "inputs": [
        {
          "indexed": false,
          "internalType": "address",
          "name": "_staker",
          "type": "address"
        },
        {
          "indexed": false,
          "internalType": "uint256",
          "name": "amount",
          "type": "uint256"
        }
      ],
      "name": "Unstake",
      "type": "event"
    },
    {
      "anonymous": false,
      "inputs": [
        {
          "indexed": false,
          "internalType": "address",
          "name": "_staker",
          "type": "address"
        },
        {
          "indexed": false,
          "internalType": "uint256",
          "name": "amount",
          "type": "uint256"
        }
      ],
      "name": "Withdraw",
      "type": "event"
    },
    {
      "inputs": [],
      "name": "owner",
      "outputs": [
        {
          "internalType": "address",
          "name": "",
          "type": "address"
        }
      ],
      "stateMutability": "view",
      "type": "function",
      "constant": true
    },
    {
      "inputs": [],
      "name": "renounceOwnership",
      "outputs": [],
      "stateMutability": "nonpayable",
      "type": "function"
    },
    {
      "inputs": [
        {
          "internalType": "address",
          "name": "newOwner",
          "type": "address"
        }
      ],
      "name": "transferOwnership",
      "outputs": [],
      "stateMutability": "nonpayable",
      "type": "function"
    },
    {
      "inputs": [],
      "name": "totalRewards",
      "outputs": [
        {
          "internalType": "uint256",
          "name": "",
          "type": "uint256"
        }
      ],
      "stateMutability": "view",
      "type": "function",
      "constant": true
    },
    {
      "inputs": [
        {
          "internalType": "address",
          "name": "_account",
          "type": "address"
        }
      ],
      "name": "isStakeHolder",
      "outputs": [
        {
          "internalType": "bool",
          "name": "",
          "type": "bool"
        }
      ],
      "stateMutability": "view",
      "type": "function",
      "constant": true
    },
    {
      "inputs": [
        {
          "internalType": "address",
          "name": "_lpToken",
          "type": "address"
        }
      ],
      "name": "setLPToken",
      "outputs": [],
      "stateMutability": "nonpayable",
      "type": "function"
    },
    {
      "inputs": [
        {
          "internalType": "address",
          "name": "_rewardToken",
          "type": "address"
        }
      ],
      "name": "setRewardToken",
      "outputs": [],
      "stateMutability": "nonpayable",
      "type": "function"
    },
    {
      "inputs": [],
      "name": "rewardTokenAddr",
      "outputs": [
        {
          "internalType": "address",
          "name": "",
          "type": "address"
        }
      ],
      "stateMutability": "view",
      "type": "function",
      "constant": true
    },
    {
      "inputs": [
        {
          "internalType": "address",
          "name": "_staker",
          "type": "address"
        }
      ],
      "name": "rewardOf",
      "outputs": [
        {
          "internalType": "uint256",
          "name": "",
          "type": "uint256"
        }
      ],
      "stateMutability": "view",
      "type": "function",
      "constant": true
    },
    {
      "inputs": [
        {
          "internalType": "uint256",
          "name": "_amount",
          "type": "uint256"
        }
      ],
      "name": "stake",
      "outputs": [],
      "stateMutability": "nonpayable",
      "type": "function"
    },
    {
      "inputs": [],
      "name": "unstake",
      "outputs": [],
      "stateMutability": "nonpayable",
      "type": "function"
    },
    {
      "inputs": [],
      "name": "claimReward",
      "outputs": [],
      "stateMutability": "nonpayable",
      "type": "function"
    }
  ],
  "bytecode": "0x608060405234801561001057600080fd5b506040516112713803806112718339818101604052602081101561003357600080fd5b505160006100486001600160e01b036100db16565b600080546001600160a01b0319166001600160a01b0383169081178255604051929350917f8be0079c531659141344cd1fd0a4f28419497f9722a3daafe3b4186f6b6457e0908290a350600280546001600160a01b0319166001600160a01b0383161790556100b56100db565b600380546001600160a01b0319166001600160a01b0392909216919091179055506100df565b3390565b611183806100ee6000396000f3fe608060405234801561001057600080fd5b50600436106100b45760003560e01c80638aee8127116100715780638aee81271461016b5780638da5cb5b14610191578063a694fc3a146101b5578063b88a802f146101d2578063e89dec6d146101da578063f2fde38b146101e2576100b4565b80630e15561a146100b95780631d62ebd9146100d35780632def6620146100f957806363512159146101035780636a678a9c1461013d578063715018a614610163575b600080fd5b6100c1610208565b60408051918252519081900360200190f35b6100c1600480360360208110156100e957600080fd5b50356001600160a01b0316610284565b6101016103dc565b005b6101296004803603602081101561011957600080fd5b50356001600160a01b0316610660565b604080519115158252519081900360200190f35b6101016004803603602081101561015357600080fd5b50356001600160a01b031661067d565b610101610701565b6101016004803603602081101561018157600080fd5b50356001600160a01b03166107ad565b610199610831565b604080516001600160a01b039092168252519081900360200190f35b610101600480360360208110156101cb57600080fd5b5035610840565b6101016109c1565b610199610a5f565b610101600480360360208110156101f857600080fd5b50356001600160a01b0316610a6e565b600254604080516370a0823160e01b815230600482015290516000926001600160a01b0316916370a08231916024808301926020929190829003018186803b15801561025357600080fd5b505afa158015610267573d6000803e3d6000fd5b505050506040513d602081101561027d57600080fd5b5051905090565b600061028e61107c565b506001600160a01b03821660009081526004602090815260408083208151808301909252805482526001015491810191909152906102ca610208565b905060006102f66102e8846020015142610b7090919063ffffffff16565b84519063ffffffff610bd216565b90506000805b60055481101561039d5761030e61107c565b600460006005848154811061031f57fe5b60009182526020808320909101546001600160a01b031683528281019390935260409182019020815180830190925280548252600101549181018290529150610392906103859061037790429063ffffffff610b7016565b83519063ffffffff610bd216565b849063ffffffff610c3216565b9250506001016102fc565b50806103b05760009450505050506103d7565b6103d0816103c4858563ffffffff610bd216565b9063ffffffff610c8c16565b9450505050505b919050565b6000600460006103ea610cf3565b6001600160a01b0316815260208101919091526040016000205411610444576040805162461bcd60e51b815260206004820152600b60248201526a4e6f74207374616b696e6760a81b604482015290519081900360640190fd5b600060046000610452610cf3565b6001600160a01b03166001600160a01b0316815260200190815260200160002090506000610486610481610cf3565b610284565b82549091506104af610496610cf3565b6002546001600160a01b0316908463ffffffff610cf716565b60008084554260018501555b60055481101561059e576104cd610cf3565b6001600160a01b0316600582815481106104e357fe5b6000918252602090912001546001600160a01b031614156105965760058054600019810190811061051057fe5b600091825260209091200154600580546001600160a01b03909216918390811061053657fe5b9060005260206000200160006101000a8154816001600160a01b0302191690836001600160a01b03160217905550600580548061056f57fe5b600082815260209020810160001990810180546001600160a01b031916905501905561059e565b6001016104bb565b5060006105b282606463ffffffff610c8c16565b905060006105c6838363ffffffff610b7016565b90506105ec6105d3610cf3565b6001546001600160a01b0316908363ffffffff610cf716565b60035460015461060f916001600160a01b0391821691168463ffffffff610cf716565b7f85082129d87b2fe11527cb1b3b7a520aeb5aa6913f88a3d8757fe40d1db02fdd610638610cf3565b604080516001600160a01b039092168252602082018690528051918290030190a15050505050565b6001600160a01b0316600090815260046020526040902054151590565b610685610cf3565b6001600160a01b0316610696610831565b6001600160a01b0316146106df576040805162461bcd60e51b81526020600482018190526024820152600080516020611104833981519152604482015290519081900360640190fd5b600180546001600160a01b0319166001600160a01b0392909216919091179055565b610709610cf3565b6001600160a01b031661071a610831565b6001600160a01b031614610763576040805162461bcd60e51b81526020600482018190526024820152600080516020611104833981519152604482015290519081900360640190fd5b600080546040516001600160a01b03909116907f8be0079c531659141344cd1fd0a4f28419497f9722a3daafe3b4186f6b6457e0908390a3600080546001600160a01b0319169055565b6107b5610cf3565b6001600160a01b03166107c6610831565b6001600160a01b03161461080f576040805162461bcd60e51b81526020600482018190526024820152600080516020611104833981519152604482015290519081900360640190fd5b600280546001600160a01b0319166001600160a01b0392909216919091179055565b6000546001600160a01b031690565b61086561084b610cf3565b6001546001600160a01b031690308463ffffffff610d4e16565b600060046000610873610cf3565b6001600160a01b03168152602081019190915260400160002080549091501561092d5760006108a3610481610cf3565b90506108c96108b0610cf3565b6002546001600160a01b0316908363ffffffff610cf716565b81546108db908463ffffffff610c3216565b82557f884edad9ce6fa2440d8a54cc123490eb96d2768479d49ff9c7366125a9424364610906610cf3565b604080516001600160a01b039092168252602082018490528051918290030190a15061096d565b818155600561093a610cf3565b81546001810183556000928352602090922090910180546001600160a01b0319166001600160a01b039092169190911790555b4260018201557febedb8b3c678666e7f36970bc8f57abf6d8fa2e828c0da91ea5b75bf68ed101a61099c610cf3565b604080516001600160a01b039092168252602082018590528051918290030190a15050565b6000600460006109cf610cf3565b6001600160a01b03166001600160a01b03168152602001908152602001600020905060006109fe610481610cf3565b4260018401559050610a116108b0610cf3565b7f884edad9ce6fa2440d8a54cc123490eb96d2768479d49ff9c7366125a9424364610a3a610cf3565b604080516001600160a01b039092168252602082018490528051918290030190a15050565b6002546001600160a01b031690565b610a76610cf3565b6001600160a01b0316610a87610831565b6001600160a01b031614610ad0576040805162461bcd60e51b81526020600482018190526024820152600080516020611104833981519152604482015290519081900360640190fd5b6001600160a01b038116610b155760405162461bcd60e51b81526004018080602001828103825260268152602001806110976026913960400191505060405180910390fd5b600080546040516001600160a01b03808516939216917f8be0079c531659141344cd1fd0a4f28419497f9722a3daafe3b4186f6b6457e091a3600080546001600160a01b0319166001600160a01b0392909216919091179055565b600082821115610bc7576040805162461bcd60e51b815260206004820152601e60248201527f536166654d6174683a207375627472616374696f6e206f766572666c6f770000604482015290519081900360640190fd5b508082035b92915050565b600082610be157506000610bcc565b82820282848281610bee57fe5b0414610c2b5760405162461bcd60e51b81526004018080602001828103825260218152602001806110e36021913960400191505060405180910390fd5b9392505050565b600082820183811015610c2b576040805162461bcd60e51b815260206004820152601b60248201527f536166654d6174683a206164646974696f6e206f766572666c6f770000000000604482015290519081900360640190fd5b6000808211610ce2576040805162461bcd60e51b815260206004820152601a60248201527f536166654d6174683a206469766973696f6e206279207a65726f000000000000604482015290519081900360640190fd5b818381610ceb57fe5b049392505050565b3390565b604080516001600160a01b038416602482015260448082018490528251808303909101815260649091019091526020810180516001600160e01b031663a9059cbb60e01b179052610d49908490610dae565b505050565b604080516001600160a01b0380861660248301528416604482015260648082018490528251808303909101815260849091019091526020810180516001600160e01b03166323b872dd60e01b179052610da8908590610dae565b50505050565b6060610e03826040518060400160405280602081526020017f5361666545524332303a206c6f772d6c6576656c2063616c6c206661696c6564815250856001600160a01b0316610e5f9092919063ffffffff16565b805190915015610d4957808060200190516020811015610e2257600080fd5b5051610d495760405162461bcd60e51b815260040180806020018281038252602a815260200180611124602a913960400191505060405180910390fd5b6060610e6e8484600085610e76565b949350505050565b606082471015610eb75760405162461bcd60e51b81526004018080602001828103825260268152602001806110bd6026913960400191505060405180910390fd5b610ec085610fd2565b610f11576040805162461bcd60e51b815260206004820152601d60248201527f416464726573733a2063616c6c20746f206e6f6e2d636f6e7472616374000000604482015290519081900360640190fd5b60006060866001600160a01b031685876040518082805190602001908083835b60208310610f505780518252601f199092019160209182019101610f31565b6001836020036101000a03801982511681845116808217855250505050505090500191505060006040518083038185875af1925050503d8060008114610fb2576040519150601f19603f3d011682016040523d82523d6000602084013e610fb7565b606091505b5091509150610fc7828286610fd8565b979650505050505050565b3b151590565b60608315610fe7575081610c2b565b825115610ff75782518084602001fd5b8160405162461bcd60e51b81526004018080602001828103825283818151815260200191508051906020019080838360005b83811015611041578181015183820152602001611029565b50505050905090810190601f16801561106e5780820380516001836020036101000a031916815260200191505b509250505060405180910390fd5b60405180604001604052806000815260200160008152509056fe4f776e61626c653a206e6577206f776e657220697320746865207a65726f2061646472657373416464726573733a20696e73756666696369656e742062616c616e636520666f722063616c6c536166654d6174683a206d756c7469706c69636174696f6e206f766572666c6f774f776e61626c653a2063616c6c6572206973206e6f7420746865206f776e65725361666545524332303a204552433230206f7065726174696f6e20646964206e6f742073756363656564a2646970667358221220283c02f14d2b6d3ace751f7ee96615d1c2c6152e24c5eb89410c30349b439c5a64736f6c63430006030033",
  "source": "pragma solidity ^0.6.3;\n\nimport \"@openzeppelin/contracts/token/ERC20/IERC20.sol\";\nimport \"@openzeppelin/contracts/token/ERC20/SafeERC20.sol\";\nimport \"@openzeppelin/contracts/math/SafeMath.sol\";\nimport \"@openzeppelin/contracts/utils/Context.sol\";\nimport \"@openzeppelin/contracts/access/Ownable.sol\";\nimport \"@openzeppelin/contracts/utils/Address.sol\";\n\ncontract NightLifeStaking is Context, Ownable {\n    using SafeMath for uint256;\n    using Address for address;\n    using SafeERC20 for IERC20;\n\n    address lpToken;\n    address rewardToken;\n    \n\taddress NLIFEWallet;\n\n    struct STAKE {\n        uint256 amount;\n        uint256 _lastUpdatedAt;\n    }\n\n    mapping(address => STAKE) _stakeInfo;\n    address[] _stakers;\n\n    event Stake(address _staker, uint256 amount);\n    event Unstake(address _staker, uint256 amount);\n    event Withdraw(address _staker, uint256 amount);\n\n    constructor(address _rewardToken) public {\n        rewardToken = _rewardToken;\n        NLIFEWallet = _msgSender();\n    }\n\n    function totalRewards() public view returns (uint256) {\n        return IERC20(rewardToken).balanceOf(address(this));\n    }\n\n    function isStakeHolder(address _account) public view returns (bool) {\n        return _stakeInfo[_account].amount > 0;\n    }\n\n    function setLPToken(address _lpToken) public onlyOwner {\n        lpToken = _lpToken;\n    }\n\n    function setRewardToken(address _rewardToken) public onlyOwner {\n        rewardToken = _rewardToken;\n    }\n\n    function rewardTokenAddr() public view returns (address) {\n        return rewardToken;\n    }\n\n    function rewardOf(address _staker) public view returns (uint256) {\n        STAKE memory _stakeDetail = _stakeInfo[_staker];\n\n        uint256 _rewards = totalRewards();\n        uint256 _singlePart =\n            _stakeDetail.amount.mul(\n                block.timestamp.sub(_stakeDetail._lastUpdatedAt)\n            );\n\n        uint256 _totalPart;\n\n        for (uint256 i = 0; i < _stakers.length; i++) {\n            STAKE memory _singleStake = _stakeInfo[_stakers[i]];\n\n            _totalPart = _totalPart.add(\n                _singleStake.amount.mul(\n                    block.timestamp.sub(_singleStake._lastUpdatedAt)\n                )\n            );\n        }\n\n        if (_totalPart == 0) return 0;\n\n        return _rewards.mul(_singlePart).div(_totalPart);\n    }\n\n    function stake(uint256 _amount) public {\n        IERC20(lpToken).safeTransferFrom(_msgSender(), address(this), _amount);\n\n        STAKE storage _stake = _stakeInfo[_msgSender()];\n\n        if (_stake.amount > 0) {\n            uint256 reward = rewardOf(_msgSender());\n            IERC20(rewardToken).safeTransfer(_msgSender(), reward);\n            _stake.amount = _stake.amount.add(_amount);\n            emit Withdraw(_msgSender(), reward);\n        } else {\n            _stake.amount = _amount;\n            _stakers.push(_msgSender());\n        }\n\n        _stake._lastUpdatedAt = block.timestamp;\n\n        emit Stake(_msgSender(), _amount);\n    }\n\n    function unstake() public {\n        require(_stakeInfo[_msgSender()].amount > 0, \"Not staking\");\n\n        STAKE storage _stake = _stakeInfo[_msgSender()];\n        uint256 reward = rewardOf(_msgSender());\n        uint256 amount = _stake.amount;\n\n        IERC20(rewardToken).safeTransfer(_msgSender(), reward);\n\n        _stake.amount = 0;\n        _stake._lastUpdatedAt = block.timestamp;\n\n        for (uint256 i = 0; i < _stakers.length; i++) {\n            if (_stakers[i] == _msgSender()) {\n                _stakers[i] = _stakers[_stakers.length - 1];\n                _stakers.pop();\n                break;\n            }\n        }\n\n        uint256 fee = amount.div(100);\n        uint256 _amount = amount.sub(fee);\n        IERC20(lpToken).safeTransfer(_msgSender(), _amount);\n        IERC20(lpToken).safeTransfer(NLIFEWallet, fee);\n        emit Unstake(_msgSender(), amount);\n    }\n\n    function claimReward() public {\n        STAKE storage _stake = _stakeInfo[_msgSender()];\n        uint256 reward = rewardOf(_msgSender());\n        _stake._lastUpdatedAt = block.timestamp;\n\n        IERC20(rewardToken).safeTransfer(_msgSender(), reward);\n        emit Withdraw(_msgSender(), reward);\n    }\n}",
  "sourcePath": "/Volumes/Data/Night Life/contracts/NightLifeStaking.sol",
  "compiler": {
    "name": "solc",
    "version": "0.6.3+commit.8dda9521.Emscripten.clang"
  },
  "schemaVersion": "3.2.3",
  "updatedAt": "2021-04-26T02:36:08.170Z",
  "networkType": "ethereum",
  "devdoc": {
    "methods": {
      "owner()": {
        "details": "Returns the address of the current owner."
      },
      "renounceOwnership()": {
        "details": "Leaves the contract without owner. It will not be possible to call `onlyOwner` functions anymore. Can only be called by the current owner.     * NOTE: Renouncing ownership will leave the contract without an owner, thereby removing any functionality that is only available to the owner."
      },
      "transferOwnership(address)": {
        "details": "Transfers ownership of the contract to a new account (`newOwner`). Can only be called by the current owner."
      }
    }
  },
  "userdoc": {
    "methods": {}
  }
}