{
  "contractName": "NightLifeCrypto",
  "abi": [
    {
      "inputs": [],
      "stateMutability": "nonpayable",
      "type": "constructor"
    },
    {
      "anonymous": false,
      "inputs": [
        {
          "indexed": true,
          "internalType": "address",
          "name": "owner",
          "type": "address"
        },
        {
          "indexed": true,
          "internalType": "address",
          "name": "spender",
          "type": "address"
        },
        {
          "indexed": false,
          "internalType": "uint256",
          "name": "value",
          "type": "uint256"
        }
      ],
      "name": "Approval",
      "type": "event"
    },
    {
      "anonymous": false,
      "inputs": [
        {
          "indexed": true,
          "internalType": "address",
          "name": "previousOwner",
          "type": "address"
        },
        {
          "indexed": true,
          "internalType": "address",
          "name": "newOwner",
          "type": "address"
        }
      ],
      "name": "OwnershipTransferred",
      "type": "event"
    },
    {
      "anonymous": false,
      "inputs": [
        {
          "indexed": true,
          "internalType": "address",
          "name": "from",
          "type": "address"
        },
        {
          "indexed": true,
          "internalType": "address",
          "name": "to",
          "type": "address"
        },
        {
          "indexed": false,
          "internalType": "uint256",
          "name": "value",
          "type": "uint256"
        }
      ],
      "name": "Transfer",
      "type": "event"
    },
    {
      "inputs": [],
      "name": "owner",
      "outputs": [
        {
          "internalType": "address",
          "name": "",
          "type": "address"
        }
      ],
      "stateMutability": "view",
      "type": "function",
      "constant": true
    },
    {
      "inputs": [],
      "name": "renounceOwnership",
      "outputs": [],
      "stateMutability": "nonpayable",
      "type": "function"
    },
    {
      "inputs": [
        {
          "internalType": "address",
          "name": "newOwner",
          "type": "address"
        }
      ],
      "name": "transferOwnership",
      "outputs": [],
      "stateMutability": "nonpayable",
      "type": "function"
    },
    {
      "inputs": [
        {
          "internalType": "address",
          "name": "account",
          "type": "address"
        },
        {
          "internalType": "bool",
          "name": "_status",
          "type": "bool"
        }
      ],
      "name": "setWhitelisted",
      "outputs": [],
      "stateMutability": "nonpayable",
      "type": "function"
    },
    {
      "inputs": [
        {
          "internalType": "address[]",
          "name": "accounts",
          "type": "address[]"
        },
        {
          "internalType": "bool",
          "name": "_status",
          "type": "bool"
        }
      ],
      "name": "setBatchWhitelisted",
      "outputs": [],
      "stateMutability": "nonpayable",
      "type": "function"
    },
    {
      "inputs": [
        {
          "internalType": "address",
          "name": "account",
          "type": "address"
        }
      ],
      "name": "isWhitelisted",
      "outputs": [
        {
          "internalType": "bool",
          "name": "",
          "type": "bool"
        }
      ],
      "stateMutability": "view",
      "type": "function",
      "constant": true
    },
    {
      "inputs": [
        {
          "internalType": "address",
          "name": "_lpSkAddr",
          "type": "address"
        }
      ],
      "name": "setLpSkAddr",
      "outputs": [],
      "stateMutability": "nonpayable",
      "type": "function"
    },
    {
      "inputs": [
        {
          "internalType": "address",
          "name": "_newAddr",
          "type": "address"
        }
      ],
      "name": "updateNLIFEWallet",
      "outputs": [],
      "stateMutability": "nonpayable",
      "type": "function"
    },
    {
      "inputs": [],
      "name": "name",
      "outputs": [
        {
          "internalType": "string",
          "name": "",
          "type": "string"
        }
      ],
      "stateMutability": "view",
      "type": "function",
      "constant": true
    },
    {
      "inputs": [],
      "name": "symbol",
      "outputs": [
        {
          "internalType": "string",
          "name": "",
          "type": "string"
        }
      ],
      "stateMutability": "view",
      "type": "function",
      "constant": true
    },
    {
      "inputs": [],
      "name": "decimals",
      "outputs": [
        {
          "internalType": "uint256",
          "name": "",
          "type": "uint256"
        }
      ],
      "stateMutability": "view",
      "type": "function",
      "constant": true
    },
    {
      "inputs": [],
      "name": "totalSupply",
      "outputs": [
        {
          "internalType": "uint256",
          "name": "",
          "type": "uint256"
        }
      ],
      "stateMutability": "view",
      "type": "function",
      "constant": true
    },
    {
      "inputs": [
        {
          "internalType": "address",
          "name": "account",
          "type": "address"
        }
      ],
      "name": "balanceOf",
      "outputs": [
        {
          "internalType": "uint256",
          "name": "",
          "type": "uint256"
        }
      ],
      "stateMutability": "view",
      "type": "function",
      "constant": true
    },
    {
      "inputs": [
        {
          "internalType": "address",
          "name": "recipient",
          "type": "address"
        },
        {
          "internalType": "uint256",
          "name": "amount",
          "type": "uint256"
        }
      ],
      "name": "transfer",
      "outputs": [
        {
          "internalType": "bool",
          "name": "",
          "type": "bool"
        }
      ],
      "stateMutability": "nonpayable",
      "type": "function"
    },
    {
      "inputs": [
        {
          "internalType": "address",
          "name": "owner",
          "type": "address"
        },
        {
          "internalType": "address",
          "name": "spender",
          "type": "address"
        }
      ],
      "name": "allowance",
      "outputs": [
        {
          "internalType": "uint256",
          "name": "",
          "type": "uint256"
        }
      ],
      "stateMutability": "view",
      "type": "function",
      "constant": true
    },
    {
      "inputs": [
        {
          "internalType": "address",
          "name": "spender",
          "type": "address"
        },
        {
          "internalType": "uint256",
          "name": "amount",
          "type": "uint256"
        }
      ],
      "name": "approve",
      "outputs": [
        {
          "internalType": "bool",
          "name": "",
          "type": "bool"
        }
      ],
      "stateMutability": "nonpayable",
      "type": "function"
    },
    {
      "inputs": [
        {
          "internalType": "address",
          "name": "sender",
          "type": "address"
        },
        {
          "internalType": "address",
          "name": "recipient",
          "type": "address"
        },
        {
          "internalType": "uint256",
          "name": "amount",
          "type": "uint256"
        }
      ],
      "name": "transferFrom",
      "outputs": [
        {
          "internalType": "bool",
          "name": "",
          "type": "bool"
        }
      ],
      "stateMutability": "nonpayable",
      "type": "function"
    },
    {
      "inputs": [
        {
          "internalType": "address",
          "name": "spender",
          "type": "address"
        },
        {
          "internalType": "uint256",
          "name": "addedValue",
          "type": "uint256"
        }
      ],
      "name": "increaseAllowance",
      "outputs": [
        {
          "internalType": "bool",
          "name": "",
          "type": "bool"
        }
      ],
      "stateMutability": "nonpayable",
      "type": "function"
    },
    {
      "inputs": [
        {
          "internalType": "address",
          "name": "spender",
          "type": "address"
        },
        {
          "internalType": "uint256",
          "name": "subtractedValue",
          "type": "uint256"
        }
      ],
      "name": "decreaseAllowance",
      "outputs": [
        {
          "internalType": "bool",
          "name": "",
          "type": "bool"
        }
      ],
      "stateMutability": "nonpayable",
      "type": "function"
    }
  ],
  "bytecode": "0x60c060405260116080819052704e69676874204c6966652043727970746f60781b60a090815262000034916004919062000252565b50604080518082019091526005808252644e4c49464560d81b602090920191825262000061918162000252565b506008600655660137807ed5e8006007553480156200007f57600080fd5b506000620000956001600160e01b036200018716565b600080546001600160a01b0319166001600160a01b0383169081178255604051929350917f8be0079c531659141344cd1fd0a4f28419497f9722a3daafe3b4186f6b6457e0908290a350620000f26001600160e01b036200018716565b600a80546001600160a01b0319166001600160a01b0392909216919091179055620001326200012062000187565b6007546001600160e01b036200018c16565b620001456001600160e01b036200018716565b6001600160a01b031660006001600160a01b03166000805160206200164c8339815191526007546040518082815260200191505060405180910390a3620002f4565b335b90565b6001600160a01b038216620001e8576040805162461bcd60e51b815260206004820152601f60248201527f45524332303a206d696e7420746f20746865207a65726f206164647265737300604482015290519081900360640190fd5b620001ff600083836001600160e01b036200024d16565b60038054820190556001600160a01b0382166000818152600160209081526040808320805486019055805185815290516000805160206200164c833981519152929181900390910190a35050565b505050565b828054600181600116156101000203166002900490600052602060002090601f016020900481019282601f106200029557805160ff1916838001178555620002c5565b82800160010185558215620002c5579182015b82811115620002c5578251825591602001919060010190620002a8565b50620002d3929150620002d7565b5090565b6200018991905b80821115620002d35760008155600101620002de565b61134880620003046000396000f3fe608060405234801561001057600080fd5b50600436106101215760003560e01c806370a08231116100ad578063a457c2d711610071578063a457c2d7146103af578063a9059cbb146103db578063dd62ed3e14610407578063f2fde38b14610435578063fee2bf131461045b57610121565b806370a0823114610327578063715018a61461034d5780638da5cb5b146103555780639281aa0b1461037957806395d89b41146103a757610121565b806323b872dd116100f457806323b872dd14610225578063279c93071461025b578063313ce567146102cd57806339509351146102d55780633af32abf1461030157610121565b806306fdde0314610126578063095ea7b3146101a3578063167a2ad3146101e357806318160ddd1461020b575b600080fd5b61012e610481565b6040805160208082528351818301528351919283929083019185019080838360005b83811015610168578181015183820152602001610150565b50505050905090810190601f1680156101955780820380516001836020036101000a031916815260200191505b509250505060405180910390f35b6101cf600480360360408110156101b957600080fd5b506001600160a01b038135169060200135610517565b604080519115158252519081900360200190f35b610209600480360360208110156101f957600080fd5b50356001600160a01b0316610535565b005b6102136105b9565b60408051918252519081900360200190f35b6101cf6004803603606081101561023b57600080fd5b506001600160a01b038135811691602081013590911690604001356105bf565b6102096004803603604081101561027157600080fd5b81019060208101813564010000000081111561028c57600080fd5b82018360208201111561029e57600080fd5b803590602001918460208302840111640100000000831117156102c057600080fd5b919350915035151561066e565b61021361072b565b6101cf600480360360408110156102eb57600080fd5b506001600160a01b038135169060200135610731565b6101cf6004803603602081101561031757600080fd5b50356001600160a01b031661077c565b6102136004803603602081101561033d57600080fd5b50356001600160a01b031661079a565b6102096107b5565b61035d610861565b604080516001600160a01b039092168252519081900360200190f35b6102096004803603604081101561038f57600080fd5b506001600160a01b0381351690602001351515610870565b61012e6108fd565b6101cf600480360360408110156103c557600080fd5b506001600160a01b03813516906020013561095e565b6101cf600480360360408110156103f157600080fd5b506001600160a01b0381351690602001356109f6565b6102136004803603604081101561041d57600080fd5b506001600160a01b0381358116916020013516610a0a565b6102096004803603602081101561044b57600080fd5b50356001600160a01b0316610a35565b6102096004803603602081101561047157600080fd5b50356001600160a01b0316610b37565b60048054604080516020601f600260001961010060018816150201909516949094049384018190048102820181019092528281526060939092909183018282801561050d5780601f106104e25761010080835404028352916020019161050d565b820191906000526020600020905b8154815290600101906020018083116104f057829003601f168201915b5050505050905090565b600061052b610524610bbb565b8484610bbf565b5060015b92915050565b61053d610bbb565b6001600160a01b031661054e610861565b6001600160a01b031614610597576040805162461bcd60e51b81526020600482018190526024820152600080516020611285833981519152604482015290519081900360640190fd5b600a80546001600160a01b0319166001600160a01b0392909216919091179055565b60035490565b60006105cc848484610cab565b6001600160a01b0384166000908152600260205260408120816105ed610bbb565b6001600160a01b03166001600160a01b031681526020019081526020016000205490508281101561064f5760405162461bcd60e51b815260040180806020018281038252602881526020018061125d6028913960400191505060405180910390fd5b6106638561065b610bbb565b858403610bbf565b506001949350505050565b610676610bbb565b6001600160a01b0316610687610861565b6001600160a01b0316146106d0576040805162461bcd60e51b81526020600482018190526024820152600080516020611285833981519152604482015290519081900360640190fd5b60005b828110156107255781600860008686858181106106ec57fe5b602090810292909201356001600160a01b0316835250810191909152604001600020805460ff19169115159190911790556001016106d3565b50505050565b60065490565b600061052b61073e610bbb565b84846002600061074c610bbb565b6001600160a01b03908116825260208083019390935260409182016000908120918b168152925290205401610bbf565b6001600160a01b031660009081526008602052604090205460ff1690565b6001600160a01b031660009081526001602052604090205490565b6107bd610bbb565b6001600160a01b03166107ce610861565b6001600160a01b031614610817576040805162461bcd60e51b81526020600482018190526024820152600080516020611285833981519152604482015290519081900360640190fd5b600080546040516001600160a01b03909116907f8be0079c531659141344cd1fd0a4f28419497f9722a3daafe3b4186f6b6457e0908390a3600080546001600160a01b0319169055565b6000546001600160a01b031690565b610878610bbb565b6001600160a01b0316610889610861565b6001600160a01b0316146108d2576040805162461bcd60e51b81526020600482018190526024820152600080516020611285833981519152604482015290519081900360640190fd5b6001600160a01b03919091166000908152600860205260409020805460ff1916911515919091179055565b60058054604080516020601f600260001961010060018816150201909516949094049384018190048102820181019092528281526060939092909183018282801561050d5780601f106104e25761010080835404028352916020019161050d565b6000806002600061096d610bbb565b6001600160a01b03908116825260208083019390935260409182016000908120918816815292529020549050828110156109d85760405162461bcd60e51b81526004018080602001828103825260258152602001806112ee6025913960400191505060405180910390fd5b6109ec6109e3610bbb565b85858403610bbf565b5060019392505050565b600061052b610a03610bbb565b8484610cab565b6001600160a01b03918216600090815260026020908152604080832093909416825291909152205490565b610a3d610bbb565b6001600160a01b0316610a4e610861565b6001600160a01b031614610a97576040805162461bcd60e51b81526020600482018190526024820152600080516020611285833981519152604482015290519081900360640190fd5b6001600160a01b038116610adc5760405162461bcd60e51b81526004018080602001828103825260268152602001806111ce6026913960400191505060405180910390fd5b600080546040516001600160a01b03808516939216917f8be0079c531659141344cd1fd0a4f28419497f9722a3daafe3b4186f6b6457e091a3600080546001600160a01b0319166001600160a01b0392909216919091179055565b610b3f610bbb565b6001600160a01b0316610b50610861565b6001600160a01b031614610b99576040805162461bcd60e51b81526020600482018190526024820152600080516020611285833981519152604482015290519081900360640190fd5b600980546001600160a01b0319166001600160a01b0392909216919091179055565b3390565b6001600160a01b038316610c045760405162461bcd60e51b81526004018080602001828103825260248152602001806112ca6024913960400191505060405180910390fd5b6001600160a01b038216610c495760405162461bcd60e51b81526004018080602001828103825260228152602001806111f46022913960400191505060405180910390fd5b6001600160a01b03808416600081815260026020908152604080832094871680845294825291829020859055815185815291517f8c5be1e5ebec7d5bd14f71427d1e84f3dd0314c0f7b2291e5b200ac8c7c3b9259281900390910190a3505050565b6001600160a01b038316610cf05760405162461bcd60e51b81526004018080602001828103825260258152602001806112a56025913960400191505060405180910390fd5b6001600160a01b038216610d355760405162461bcd60e51b81526004018080602001828103825260238152602001806111ab6023913960400191505060405180910390fd5b610d40838383611027565b6001600160a01b03831660009081526001602052604090205481811015610d985760405162461bcd60e51b81526004018080602001828103825260268152602001806112166026913960400191505060405180910390fd5b81600080610da58761077c565b80610db45750610db48661077c565b610f7457610dda60c8610dce87600363ffffffff61102c16565b9063ffffffff61108c16565b9150610ded85606463ffffffff61108c16565b9050610dff858363ffffffff6110f316565b9250610e11838263ffffffff6110f316565b9250610e23848663ffffffff6110f316565b6001600160a01b038089166000908152600160205260408082209390935560095490911681522054610e5b908363ffffffff61115016565b6009546001600160a01b0390811660009081526001602052604080822093909355600a5490911681522054610e96908263ffffffff61115016565b600a546001600160a01b039081166000908152600160205260408082209390935590881681522054610ece908463ffffffff61115016565b6001600160a01b03808816600090815260016020908152604091829020939093556009548151868152915190831693928b16927fddf252ad1be2c89b69c2b068fc378daa952ba7f163c4a11628f55a4df523b3ef928290030190a3600a546040805183815290516001600160a01b03928316928a16917fddf252ad1be2c89b69c2b068fc378daa952ba7f163c4a11628f55a4df523b3ef919081900360200190a3610fd3565b610f84848663ffffffff6110f316565b6001600160a01b038089166000908152600160205260408082209390935590881681522054610fb9908663ffffffff61115016565b6001600160a01b0387166000908152600160205260409020555b856001600160a01b0316876001600160a01b03167fddf252ad1be2c89b69c2b068fc378daa952ba7f163c4a11628f55a4df523b3ef856040518082815260200191505060405180910390a350505050505050565b505050565b60008261103b5750600061052f565b8282028284828161104857fe5b04146110855760405162461bcd60e51b815260040180806020018281038252602181526020018061123c6021913960400191505060405180910390fd5b9392505050565b60008082116110e2576040805162461bcd60e51b815260206004820152601a60248201527f536166654d6174683a206469766973696f6e206279207a65726f000000000000604482015290519081900360640190fd5b8183816110eb57fe5b049392505050565b60008282111561114a576040805162461bcd60e51b815260206004820152601e60248201527f536166654d6174683a207375627472616374696f6e206f766572666c6f770000604482015290519081900360640190fd5b50900390565b600082820183811015611085576040805162461bcd60e51b815260206004820152601b60248201527f536166654d6174683a206164646974696f6e206f766572666c6f770000000000604482015290519081900360640190fdfe45524332303a207472616e7366657220746f20746865207a65726f20616464726573734f776e61626c653a206e6577206f776e657220697320746865207a65726f206164647265737345524332303a20617070726f766520746f20746865207a65726f206164647265737345524332303a207472616e7366657220616d6f756e7420657863656564732062616c616e6365536166654d6174683a206d756c7469706c69636174696f6e206f766572666c6f7745524332303a207472616e7366657220616d6f756e74206578636565647320616c6c6f77616e63654f776e61626c653a2063616c6c6572206973206e6f7420746865206f776e657245524332303a207472616e736665722066726f6d20746865207a65726f206164647265737345524332303a20617070726f76652066726f6d20746865207a65726f206164647265737345524332303a2064656372656173656420616c6c6f77616e63652062656c6f77207a65726fa26469706673582212205a0d29af72f791c6161b978f46b50475b2614b031cb3d4a06f9ccc3a7d48a26364736f6c63430006030033ddf252ad1be2c89b69c2b068fc378daa952ba7f163c4a11628f55a4df523b3ef",
  "source": "pragma solidity ^0.6.3;\n\nimport \"@openzeppelin/contracts/token/ERC20/IERC20.sol\";\nimport \"@openzeppelin/contracts/token/ERC1155/IERC1155.sol\";\nimport \"@openzeppelin/contracts/utils/Context.sol\";\nimport \"@openzeppelin/contracts/access/Ownable.sol\";\nimport \"@openzeppelin/contracts/math/SafeMath.sol\";\nimport \"@openzeppelin/contracts/utils/Address.sol\";\n\ncontract NightLifeCrypto is Context, IERC20, Ownable {\n    using SafeMath for uint256;\n    using Address for address;\n\n    mapping(address => uint256) private _balances;\n\n    mapping(address => mapping(address => uint256)) private _allowances;\n\n    uint256 private _totalSupply;\n\n    string private _name = \"Night Life Crypto\";\n    string private _symbol = \"NLIFE\";\n\tuint256 private _decimals = 8;\n    uint256 private _total = 3425000 * 10**_decimals;\n\n    mapping(address => bool) private _whitelisted;\n\t\n    address lpSkAddr;\n\taddress NLIFEWallet;\n\n    constructor() public {\n\t\tNLIFEWallet = _msgSender();\n        _mint(_msgSender(), _total);\n        emit Transfer(address(0), _msgSender(), _total);\n    }\n\t\n\t/**\n\t * @dev set the account to be whitelisted or not\n\t */\n    function setWhitelisted(address account, bool _status) external onlyOwner {\n        _whitelisted[account] = _status;\n    }\n\n\t/**\n\t * @dev set the accounts to be whitelisted or not\n\t */\n    function setBatchWhitelisted(address[] calldata accounts, bool _status) external onlyOwner {\n        for (uint256 i = 0; i < accounts.length; ++i) {\n        \t_whitelisted[accounts[i]] = _status;\n        }\n    }\n\n    /**\n     * @dev return if account is whitelisted\n     */\n    function isWhitelisted(address account) public view returns (bool) {\n        return _whitelisted[account];\n    }\n\n    /**\n     * @dev set Staking contract address\n     */\n    function setLpSkAddr(address _lpSkAddr) public onlyOwner {\n        lpSkAddr = _lpSkAddr;\n    }\n\n    /**\n     * @dev update NLIFE wallet address\n     */\n    function updateNLIFEWallet(address _newAddr) public onlyOwner {\n        NLIFEWallet = _newAddr;\n    }\n\n\n    /**\n     * @dev Returns the name of the token.\n     */\n    function name() public view virtual returns (string memory) {\n        return _name;\n    }\n\n    /**\n     * @dev Returns the symbol of the token, usually a shorter version of the\n     * name.\n     */\n    function symbol() public view virtual returns (string memory) {\n        return _symbol;\n    }\n\n    /**\n     * @dev Returns the number of decimals used to get its user representation.\n     * For example, if `decimals` equals `2`, a balance of `505` tokens should\n     * be displayed to a user as `5,05` (`505 / 10 ** 2`).\n     *\n     * Tokens usually opt for a value of 18, imitating the relationship between\n     * Ether and Wei. This is the value {ERC20} uses, unless this function is\n     * overloaded;\n     *\n     * NOTE: This information is only used for _display_ purposes: it in\n     * no way affects any of the arithmetic of the contract, including\n     * {IERC20-balanceOf} and {IERC20-transfer}.\n     */\n    function decimals() public view virtual returns (uint256) {\n        return _decimals;\n    }\n\n    /**\n     * @dev See {IERC20-totalSupply}.\n     */\n    function totalSupply() public view virtual override returns (uint256) {\n        return _totalSupply;\n    }\n\n    /**\n     * @dev See {IERC20-balanceOf}.\n     */\n    function balanceOf(address account)\n        public\n        view\n        virtual\n        override\n        returns (uint256)\n    {\n        return _balances[account];\n    }\n\n    /**\n     * @dev See {IERC20-transfer}.\n     *\n     * Requirements:\n     *\n     * - `recipient` cannot be the zero address.\n     * - the caller must have a balance of at least `amount`.\n     */\n    function transfer(address recipient, uint256 amount)\n        public\n        virtual\n        override\n        returns (bool)\n    {\n        _transfer(_msgSender(), recipient, amount);\n        return true;\n    }\n\n    /**\n     * @dev See {IERC20-allowance}.\n     */\n    function allowance(address owner, address spender)\n        public\n        view\n        virtual\n        override\n        returns (uint256)\n    {\n        return _allowances[owner][spender];\n    }\n\n    /**\n     * @dev See {IERC20-approve}.\n     *\n     * Requirements:\n     *\n     * - `spender` cannot be the zero address.\n     */\n    function approve(address spender, uint256 amount)\n        public\n        virtual\n        override\n        returns (bool)\n    {\n        _approve(_msgSender(), spender, amount);\n        return true;\n    }\n\n    /**\n     * @dev See {IERC20-transferFrom}.\n     *\n     * Emits an {Approval} event indicating the updated allowance. This is not\n     * required by the EIP. See the note at the beginning of {ERC20}.\n     *\n     * Requirements:\n     *\n     * - `sender` and `recipient` cannot be the zero address.\n     * - `sender` must have a balance of at least `amount`.\n     * - the caller must have allowance for ``sender``'s tokens of at least\n     * `amount`.\n     */\n    function transferFrom(\n        address sender,\n        address recipient,\n        uint256 amount\n    ) public virtual override returns (bool) {\n        _transfer(sender, recipient, amount);\n\n        uint256 currentAllowance = _allowances[sender][_msgSender()];\n        require(\n            currentAllowance >= amount,\n            \"ERC20: transfer amount exceeds allowance\"\n        );\n        _approve(sender, _msgSender(), currentAllowance - amount);\n\n        return true;\n    }\n\n    /**\n     * @dev Atomically increases the allowance granted to `spender` by the caller.\n     *\n     * This is an alternative to {approve} that can be used as a mitigation for\n     * problems described in {IERC20-approve}.\n     *\n     * Emits an {Approval} event indicating the updated allowance.\n     *\n     * Requirements:\n     *\n     * - `spender` cannot be the zero address.\n     */\n    function increaseAllowance(address spender, uint256 addedValue)\n        public\n        virtual\n        returns (bool)\n    {\n        _approve(\n            _msgSender(),\n            spender,\n            _allowances[_msgSender()][spender] + addedValue\n        );\n        return true;\n    }\n\n    /**\n     * @dev Atomically decreases the allowance granted to `spender` by the caller.\n     *\n     * This is an alternative to {approve} that can be used as a mitigation for\n     * problems described in {IERC20-approve}.\n     *\n     * Emits an {Approval} event indicating the updated allowance.\n     *\n     * Requirements:\n     *\n     * - `spender` cannot be the zero address.\n     * - `spender` must have allowance for the caller of at least\n     * `subtractedValue`.\n     */\n    function decreaseAllowance(address spender, uint256 subtractedValue)\n        public\n        virtual\n        returns (bool)\n    {\n        uint256 currentAllowance = _allowances[_msgSender()][spender];\n        require(\n            currentAllowance >= subtractedValue,\n            \"ERC20: decreased allowance below zero\"\n        );\n        _approve(_msgSender(), spender, currentAllowance - subtractedValue);\n\n        return true;\n    }\n\n    /**\n     * @dev Moves tokens `amount` from `sender` to `recipient`.\n     *\n     * This is internal function is equivalent to {transfer}, and can be used to\n     * e.g. implement automatic token fees, slashing mechanisms, etc.\n     *\n     * Emits a {Transfer} event.\n     *\n     * Requirements:\n     *\n     * - `sender` cannot be the zero address.\n     * - `recipient` cannot be the zero address.\n     * - `sender` must have a balance of at least `amount`.\n     */\n    function _transfer(\n        address sender,\n        address recipient,\n        uint256 amount\n    ) internal virtual {\n        require(sender != address(0), \"ERC20: transfer from the zero address\");\n        require(recipient != address(0), \"ERC20: transfer to the zero address\");\n\n        _beforeTokenTransfer(sender, recipient, amount);\n\n        uint256 senderBalance = _balances[sender];\n\n        require(\n            senderBalance >= amount,\n            \"ERC20: transfer amount exceeds balance\"\n        );\n    \n\t\tuint256 _amount = amount;\n\t\tuint256 _lpFee = 0;\n\t\tuint256 _lifeFee = 0;\n\n\t\tif (!(isWhitelisted(sender) || isWhitelisted(recipient))) {\n\t\t\t_lpFee = amount.mul(3).div(200);\n\t\t\t_lifeFee = amount.div(100);\n\t\t\t_amount = amount.sub(_lpFee);\n\t\t\t_amount = _amount.sub(_lifeFee);\n\t\t\t_balances[sender] = senderBalance.sub(amount);\n\t\t\t_balances[lpSkAddr] = _balances[lpSkAddr].add(_lpFee);\n\t\t\t_balances[NLIFEWallet] = _balances[NLIFEWallet].add(_lifeFee);\n\t\t\t_balances[recipient] = _balances[recipient].add(_amount);\n\t\t\temit Transfer(sender, lpSkAddr, _lpFee);\n\t\t\temit Transfer(sender, NLIFEWallet, _lifeFee);\n\t\t} else {\n\t\t\t_balances[sender] = senderBalance.sub(amount);\n\t\t\t_balances[recipient] = _balances[recipient].add(amount);\n\t\t}\n\n        emit Transfer(sender, recipient, _amount);\n    }\n\n    /**\n     * @dev Sets `amount` as the allowance of `spender` over the `owner` s tokens.\n     *\n     * This internal function is equivalent to `approve`, and can be used to\n     * e.g. set automatic allowances for certain subsystems, etc.\n     *\n     * Emits an {Approval} event.\n     *\n     * Requirements:\n     *\n     * - `owner` cannot be the zero address.\n     * - `spender` cannot be the zero address.\n     */\n    function _approve(\n        address owner,\n        address spender,\n        uint256 amount\n    ) internal virtual {\n        require(owner != address(0), \"ERC20: approve from the zero address\");\n        require(spender != address(0), \"ERC20: approve to the zero address\");\n\n        _allowances[owner][spender] = amount;\n        emit Approval(owner, spender, amount);\n    }\n\n    /**\n     * @dev Hook that is called before any transfer of tokens. This includes\n     * minting and burning.\n     *\n     * Calling conditions:\n     *\n     * - when `from` and `to` are both non-zero, `amount` of ``from``'s tokens\n     * will be to transferred to `to`.\n     * - when `from` is zero, `amount` tokens will be minted for `to`.\n     * - when `to` is zero, `amount` of ``from``'s tokens will be burned.\n     * - `from` and `to` are never both zero.\n     *\n     * To learn more about hooks, head to xref:ROOT:extending-contracts.adoc#using-hooks[Using Hooks].\n     */\n    function _beforeTokenTransfer(\n        address from,\n        address to,\n        uint256 amount\n    ) internal virtual {}\n\n    /** @dev Creates `amount` tokens and assigns them to `account`, increasing\n     * the total supply.\n     *\n     * Emits a {Transfer} event with `from` set to the zero address.\n     *\n     * Requirements:\n     *\n     * - `to` cannot be the zero address.\n     */\n    function _mint(address account, uint256 amount) internal virtual {\n        require(account != address(0), \"ERC20: mint to the zero address\");\n\n        _beforeTokenTransfer(address(0), account, amount);\n\n        _totalSupply += amount;\n        _balances[account] += amount;\n        emit Transfer(address(0), account, amount);\n    }\n\n    /**\n     * @dev Destroys `amount` tokens from `account`, reducing the\n     * total supply.\n     *\n     * Emits a {Transfer} event with `to` set to the zero address.\n     *\n     * Requirements:\n     *\n     * - `account` cannot be the zero address.\n     * - `account` must have at least `amount` tokens.\n     */\n    function _burn(address account, uint256 amount) internal virtual {\n        require(account != address(0), \"ERC20: burn from the zero address\");\n\n        _beforeTokenTransfer(account, address(0), amount);\n\n        uint256 accountBalance = _balances[account];\n        require(accountBalance >= amount, \"ERC20: burn amount exceeds balance\");\n        _balances[account] = accountBalance - amount;\n        _totalSupply -= amount;\n\n        emit Transfer(account, address(0), amount);\n    }\n}",
  "sourcePath": "/Volumes/Data/Night Life/contracts/NightLifeCrypto.sol",
  "compiler": {
    "name": "solc",
    "version": "0.6.3+commit.8dda9521.Emscripten.clang"
  },
  "schemaVersion": "3.2.3",
  "updatedAt": "2021-04-26T02:36:08.164Z",
  "networkType": "ethereum",
  "devdoc": {
    "methods": {
      "allowance(address,address)": {
        "details": "See {IERC20-allowance}."
      },
      "approve(address,uint256)": {
        "details": "See {IERC20-approve}.     * Requirements:     * - `spender` cannot be the zero address."
      },
      "balanceOf(address)": {
        "details": "See {IERC20-balanceOf}."
      },
      "decimals()": {
        "details": "Returns the number of decimals used to get its user representation. For example, if `decimals` equals `2`, a balance of `505` tokens should be displayed to a user as `5,05` (`505 / 10 ** 2`).     * Tokens usually opt for a value of 18, imitating the relationship between Ether and Wei. This is the value {ERC20} uses, unless this function is overloaded;     * NOTE: This information is only used for _display_ purposes: it in no way affects any of the arithmetic of the contract, including {IERC20-balanceOf} and {IERC20-transfer}."
      },
      "decreaseAllowance(address,uint256)": {
        "details": "Atomically decreases the allowance granted to `spender` by the caller.     * This is an alternative to {approve} that can be used as a mitigation for problems described in {IERC20-approve}.     * Emits an {Approval} event indicating the updated allowance.     * Requirements:     * - `spender` cannot be the zero address. - `spender` must have allowance for the caller of at least `subtractedValue`."
      },
      "increaseAllowance(address,uint256)": {
        "details": "Atomically increases the allowance granted to `spender` by the caller.     * This is an alternative to {approve} that can be used as a mitigation for problems described in {IERC20-approve}.     * Emits an {Approval} event indicating the updated allowance.     * Requirements:     * - `spender` cannot be the zero address."
      },
      "isWhitelisted(address)": {
        "details": "return if account is whitelisted"
      },
      "name()": {
        "details": "Returns the name of the token."
      },
      "owner()": {
        "details": "Returns the address of the current owner."
      },
      "renounceOwnership()": {
        "details": "Leaves the contract without owner. It will not be possible to call `onlyOwner` functions anymore. Can only be called by the current owner.     * NOTE: Renouncing ownership will leave the contract without an owner, thereby removing any functionality that is only available to the owner."
      },
      "setBatchWhitelisted(address[],bool)": {
        "details": "set the accounts to be whitelisted or not"
      },
      "setLpSkAddr(address)": {
        "details": "set Staking contract address"
      },
      "setWhitelisted(address,bool)": {
        "details": "set the account to be whitelisted or not"
      },
      "symbol()": {
        "details": "Returns the symbol of the token, usually a shorter version of the name."
      },
      "totalSupply()": {
        "details": "See {IERC20-totalSupply}."
      },
      "transfer(address,uint256)": {
        "details": "See {IERC20-transfer}.     * Requirements:     * - `recipient` cannot be the zero address. - the caller must have a balance of at least `amount`."
      },
      "transferFrom(address,address,uint256)": {
        "details": "See {IERC20-transferFrom}.     * Emits an {Approval} event indicating the updated allowance. This is not required by the EIP. See the note at the beginning of {ERC20}.     * Requirements:     * - `sender` and `recipient` cannot be the zero address. - `sender` must have a balance of at least `amount`. - the caller must have allowance for ``sender``'s tokens of at least `amount`."
      },
      "transferOwnership(address)": {
        "details": "Transfers ownership of the contract to a new account (`newOwner`). Can only be called by the current owner."
      },
      "updateNLIFEWallet(address)": {
        "details": "update NLIFE wallet address"
      }
    }
  },
  "userdoc": {
    "methods": {}
  }
}